:020000008D2C45
:08000800FF00030E8312031335
:10001000C0000A0EC100040EC2008A110A12AA2CE6
:10002000FE08031D14280800F930FF3E031D1528A3
:100030000000FE0B14280800FA30FE001020FA30F1
:10004000FE001020FA30FE001020FA30FE001020D2
:10005000F60B1C2808004B08831287000516851232
:100060000F30FE0010200512851208004B08831285
:100070008700051685160F30FE0010200512851624
:10008000051285120800203083160313BC00C0003F
:100090004130BF00C4004230B8004430BD0045309C
:1000A000BA004930BE00C6004E30BB004F30C7001A
:1000B0005230C5005330C2005530B900C100C300F2
:1000C000C80180308312FC00FD018316C901CA01FA
:1000D000113049024A0803186F2803197128CA1FF2
:1000E0008C2883127C088316CB0083127D0883162C
:1000F000CC002B208313B830840083164908840772
:100100000008CB00CC013620FC0A0319FD0A831637
:10011000C90A0319CA0A682880308312C300C401BF
:10012000CB01CC01C901CA0108000C1E9528790831
:1001300099000800831203139817831618121813D6
:100140001815193099000C16981608009A202030BE
:10015000A200A700AC004130A100A400A600AB00A3
:10016000B300B500B6004230AD004330A3004430C8
:10017000B4004530A800B2004A30A5004C30A000C1
:10018000AE004F30AF005130B0005330A9005430B2
:10019000AA005530B100B7018312F701F8011830F9
:1001A000770278080318D6280319D828F81F080002
:1001B0008313A0308400770884070008F900FA014F
:1001C0009520C30A0319C40AF70A0319F80ACF28AD
:1001D000803083120313C300C401CB01CC01013072
:1001E0008316CB00CC012B200F30FE00102008001E
:1001F00083120313981383160C129812831287012B
:10020000080083120313E801E90108306802690855
:1002100003180C2903190E29E91F0800831328303D
:1002200084006808840700308000E80A0319E90A9E
:10023000052983120313E801E901083068026908FF
:100240000318242903192629E91F080083132030E5
:1002500084006808840700308000E80A0319E90A6E
:100260001D29433083120313EA00EF004530EE00EE
:100270004930E8004E30E9004F30EB00F1005230D9
:10028000EC00ED005430F000F2018030F300F40196
:10029000F501F6010B307502760803185129031990
:1002A0005329F61F6C2973088316CB008312740838
:1002B0008316CC002B2083136830840075088407D4
:1002C00000088316CB00CC013620F30A0319F40A88
:1002D000F50A0319F60A4A290330490603194A08A0
:1002E000031D7629A620F8208B147B29C908CA088B
:1002F000C90A0319CA0A8030C300C401CB01CC016A
:100300000800E8202030ED00F0004130F2004230DB
:10031000F4004330F1004530E800EE004930F500CC
:100320004D30F3004E30EF004F30EB00F60052300E
:10033000E900EA00EC00F7018030F800F901FA0169
:10034000FB0110307A027B080318A8290319AA2997
:10035000FB1FC32978088316CB0083127908831604
:10036000CC002B208313683084007A0884070008AF
:100370008316CB00CC013620F80A0319F90AFA0AD1
:100380000319FB0AA129C901CA010800E82020308D
:10039000EE004130E9004230EB004330E8004930E4
:1003A000EC004B30F0004D30EA004F30ED00EF0034
:1003B000F1018030F200F301F401F5010A3074021A
:1003C00075080318E5290319E729F51F002A7208A3
:1003D0008316CB00831273088316CC002B20831363
:1003E000683084007408840700088316CB00CC01B1
:1003F0003620F20A0319F30AF40A0319F50ADE2972
:10040000C901CA010800831203136514E601E7015C
:1004100008306602670803180F2A0319112AE71F1C
:10042000292A8313203084006608E80068088407BE
:100430000008E900831328308400660884076908EF
:1004400000060319252A6510292AE60A0319E70A76
:10045000082AE820651C352A43200F308316CB007C
:10046000CC012B204D14CD153B2A31210F308316A2
:10047000CB00CC012B200121CB01CC010230F600B6
:100480001C2001308316CB00CC012B200800E82073
:100490002030ED004130F0004330E500EE00453003
:1004A000EC00F2004630E8004930E9004C30EF0043
:1004B0004D30EB004E30E7004F30E6005230EA009E
:1004C0005630F100F301F401F5010F3074027508A4
:1004D00003186C2A03196E2AF51F872A430883160E
:1004E000CB00831244088316CC002B208313653085
:1004F00084007408840700088316CB00CC013620E2
:10050000C30A0319C40AF40A0319F50A652A01305B
:10051000F6001C200800E8202030EA004130E90005
:10052000ED004330EB004530E700EF004C30EC00CD
:100530004E30E5005530E6005630E800EE00F001A0
:10054000F101F2010C30710272080318A92A031993
:10055000AB2AF21FC42A43088316CB008312440837
:100560008316CC002B208313653084007108840728
:1005700000088316CB00CC013620C30A0319C40A35
:10058000F10A0319F20AA22A0130F6001C20080021
:10059000E8202030E8004130EB004530E400E7007F
:1005A000ED004930E1004C30E900EA004E30E20055
:1005B0005230E5005330E3005430E6005630EC0092
:1005C000EE01EF01F0010E306F0270080318EA2A05
:1005D0000319EC2AF01F052B43088316CB00831266
:1005E00044088316CC002B208313613084006F08ED
:1005F000840700088316CB00CC013620C30A0319F8
:10060000C40AEF0A0319F00AE32A0130F6001C209D
:1006100008009A2020308312E7002D30E100E2002C
:10062000F400F5004130E400E600F100F300423050
:10063000EB004330E3004430E800F2004530E900CD
:10064000F0004A30E5004C30EC004F30ED00513006
:10065000EE005330EA005530EF00F601F701F801E3
:100660001630770278080318372B0319392BF81F37
:100670000800831361308400770884070008F900BC
:10068000FA019520C30A0319C40AF70A0319F80AE4
:10069000302B8312031347084506031DB52B48086A
:1006A0004606031DB52B4608803AE50080306502FA
:1006B000031D5C2B04304502031CB32B8030E50086
:1006C0004608803A65024508C6080319083C031C21
:1006D000B32B6514E601E7010830660267080318CA
:1006E000732B0319752BE71F8D2B83133830840070
:1006F0006608E800680884070008E90083133030C2
:10070000840066088407690800060319892B6510B0
:100710008D2BE60A0319E70A6C2B651CB12B1921F6
:10072000E601E7010830660267080318992B0319F0
:100730009B2BE71FAF2B8313303084006608E80043
:10074000680884070008E9008313203084006608E5
:10075000840769088000E60A0319E70A922BC6217C
:10076000B62B8121B62B8121B62B8121CD104D11C5
:10077000C701C801C501C6010130F6001C200800F0
:10078000203083120313D5004130D8004330D60007
:100790004530D100D400DA004930CE004C30D700CB
:1007A0004E30CF005230D2005330D0005430D300FE
:1007B0005630D900DB01DC01DD010E305C025D0842
:1007C0000318E42B0319E62BDD1FFF2B43088316C8
:1007D000CB00831244088316CC002B2083134E30A9
:1007E00084005C08840700088316CB00CC01362007
:1007F000C30A0319C40ADC0A0319DD0ADD2B0F3012
:100800008316CB00CC012B208030C300C40108002C
:10081000203083120313D4002B30CE00CF00DC0035
:10082000DD004130D100D300D900DB004330D000DF
:10083000D5004430DA004530D6004A30D20052307C
:10084000D700D800DE01DF01E00111305F0260084F
:1008500003182C2C03192E2CE01F472C4308831659
:10086000CB00831244088316CC002B2083134E3018
:1008700084005F08840700088316CB00CC01362073
:10088000C30A0319C40ADF0A0319E00A252C0F3032
:100890008316CB00CC012B208030C300C40108009C
:1008A000831603138701F130860006309F0085010F
:1008B00081138B158B170B16831286010E30850062
:1008C0003930FE0010200D3085003930FE00102038
:1008D0000B3085003930FE00102007308500861C63
:1008E000762C4D10CD104D1108245E2C803043061F
:1008F00003194408031D822C4D18822CCD18822C1C
:10090000C0235E2C8030430603194408031D5E2C6F
:100910004D1C5E2CCD1C43205E2C803083120313B3
:10092000C300C4013130A0003230A1003330A20036
:100930003430A300C501C601C701C8010130C90098
:10094000CA014D10CD104D11CD11CB01CC018A1132
:100950000A12502C831203138618E92F80304306A5
:10096000031944080319E8208B1CC12C061CC12C58
:100970000923F820E8200130C900CA018B178B1029
:10098000E92F8B1CC72C0618C72CC822E92F050895
:10099000E100E2010608E300E4010B100E306106FD
:1009A00003196208031D142DE0306306031964085F
:1009B000031D142D43088316CB00831244088316AD
:1009C000CC002B2037308316CB00CC0136200F30E3
:1009D0008316CB00CC012B20CD1C062D4D1DFB2CEE
:1009E0008313383084004708840737308000C70AF3
:1009F0000319C80A102D831330308400450884077A
:100A000037308000C50A0319C60A102D8313283019
:100A100084004B08840737308000CB0A0319CC0AC6
:100A2000C30A0319C40AE82F0E30610603196208CD
:100A3000031D5A2DD030630603196408031D5A2D77
:100A400043088316CB00831244088316CC002B2066
:100A500038308316CB00CC0136200F308316CB0004
:100A6000CC012B20CD1C4C2D4D1D412D8313383036
:100A700084004708840738308000C70A0319C80A71
:100A8000562D8313303084004508840738308000A9
:100A9000C50A0319C60A562D8313283084004B0853
:100AA000840738308000CB0A0319CC0AC30A031923
:100AB000C40AE82F0E30610603196208031DA02D39
:100AC000B030630603196408031DA02D4308831684
:100AD000CB00831244088316CC002B2039308316B8
:100AE000CB00CC0136200F308316CB00CC012B205D
:100AF000CD1C922D4D1D872D83133830840047085F
:100B0000840739308000C70A0319C80A9C2D831353
:100B1000303084004508840739308000C50A031945
:100B2000C60A9C2D8313283084004B088407393073
:100B30008000CB0A0319CC0AC30A0319C40AE82FA0
:100B40000D30610603196208031DE62DE0306306CF
:100B500003196408031DE62D43088316CB00831296
:100B600044088316CC002B2034308316CB00CC01F4
:100B700036200F308316CB00CC012B20CD1CD82D76
:100B80004D1DCD2D83133830840047088407343041
:100B90008000C70A0319C80AE22D8313303084008D
:100BA0004508840734308000C50A0319C60AE22DBF
:100BB0008313283084004B08840734308000CB0A2C
:100BC0000319CC0AC30A0319C40AE82F0D306106C1
:100BD00003196208031D2C2ED03063060319640824
:100BE000031D2C2E43088316CB0083124408831662
:100BF000CC002B2035308316CB00CC0136200F30B3
:100C00008316CB00CC012B20CD1C1E2E4D1D132E88
:100C10008313383084004708840735308000C70AC2
:100C20000319C80A282E831330308400450884072E
:100C300035308000C50A0319C60A282E83132830D0
:100C400084004B08840735308000CB0A0319CC0A96
:100C5000C30A0319C40AE82F0D306106031962089C
:100C6000031D722EB030630603196408031D722E33
:100C700043088316CB00831244088316CC002B2034
:100C800036308316CB00CC0136200F308316CB00D4
:100C9000CC012B20CD1C642E4D1D592E83133830D2
:100CA00084004708840736308000C70A0319C80A41
:100CB0006E2E831330308400450884073630800060
:100CC000C50A0319C60A6E2E8313283084004B0808
:100CD000840736308000CB0A0319CC0AC30A0319F3
:100CE000C40AE82F0B30610603196208031DB82EF1
:100CF000E030630603196408031DB82E4308831609
:100D0000CB00831244088316CC002B20313083168D
:100D1000CB00CC0136200F308316CB00CC012B202A
:100D2000CD1CAA2E4D1D9F2E8313383084004708FA
:100D3000840731308000C70A0319C80AB42E831310
:100D4000303084004508840731308000C50A03191B
:100D5000C60AB42E8313283084004B088407313030
:100D60008000CB0A0319CC0AC30A0319C40AE82F6E
:100D70000B30610603196208031DFE2ED030630696
:100D800003196408031DFE2E43088316CB0083124B
:100D900044088316CC002B2032308316CB00CC01C4
:100DA00036200F308316CB00CC012B20CD1CF02E2B
:100DB0004D1DE52E831338308400470884073230F8
:100DC0008000C70A0319C80AFA2E83133030840042
:100DD0004508840732308000C50A0319C60AFA2E76
:100DE0008313283084004B08840732308000CB0AFC
:100DF0000319CC0AC30A0319C40AE82F0B30610691
:100E000003196208031D442FB030630603196408F8
:100E1000031D442F43088316CB0083124408831616
:100E2000CC002B2033308316CB00CC0136200F3082
:100E30008316CB00CC012B20CD1C362F4D1D2B2F24
:100E40008313383084004708840733308000C70A92
:100E50000319C80A402F83133030840045088407E3
:100E600033308000C50A0319C60A402F8313283087
:100E700084004B08840733308000CB0A0319CC0A66
:100E8000C30A0319C40AE82F073061060319620870
:100E9000031D752FE030630603196408031D752FC9
:100EA00043088316CB00831244088316CC002B2002
:100EB00041308316CB00CC0136200F308316CB0097
:100EC000CC012B20E8204D1C6F2FCD110322CD1D0E
:100ED0006D2F8B22E820CD14E82F3121E82F0F3021
:100EE0008316CB00CC012B20E82F073061060319B5
:100EF0006208031DBB2FD030630603196408031D6D
:100F0000BB2F43088316CB00831244088316CC0002
:100F10002B2030308316CB00CC0136200F308316C7
:100F2000CB00CC012B20CD1CAD2F4D1DA22F831348
:100F3000383084004708840730308000C70A03191E
:100F4000C80AB72F83133030840045088407303037
:100F50008000C50A0319C60AB72F831328308400FE
:100F60004B08840730308000CB0A0319CC0AC30A2F
:100F70000319C40AE82F0730610603196208031D2C
:100F8000E82FB030630603196408031DE82FCD1C59
:100F9000E12F4D19E12F43088316CB00831244083B
:100FA0008316CC002B2042308316CB00CC01362098
:100FB0000F308316CB00CC012B204D154722E820A3
:100FC000E82F4D1DE72FCD1CE72F4923E82F0322E3
:100FD0008B17420E8400410E8A00400E8300FF0EE4
:040FE0007F0E090077
:00000001FF
